:100000000C945E000C9486000C9486000C94860080
:100010000C9486000C9486000C9486000C94860048
:100020000C9486000C9486000C9486000C94860038
:100030000C9486000C9486000C9486000C94860028
:100040000C94D3020C9486000C94A1020C947B02B5
:100050000C9486000C9486000C9486000C94860008
:100060000C9486000C948600000000080002010039
:100070000003040700000000000000000000000072
:10008000250028002B0000000000240027002A0083
:10009000040404040404040402020202020203032E
:1000A0000303030301020408102040800102040836
:1000B00010200102040810201D03440511241FBE56
:1000C000CFEFD8E0DEBFCDBF22E0ACE6B1E001C0AB
:1000D0001D92AF31B207E1F711E0A0E0B1E0E6E533
:1000E000FFE002C005900D92AC36B107D9F710E0E1
:1000F000CDE5D0E004C02197FE010E94A605CC35D5
:10010000D107C9F70E94A8030C949E070C94000025
:1001100090E0FC01EC55FF4F249180579F4FFC016C
:100120008491882399F090E0880F991FFC01EA5789
:10013000FF4FA591B491FC01E458FF4F8591949134
:100140008FB7F894EC91E22BEC938FBF0895AF92A8
:10015000BF92CF92DF92EF92FF920F931F93CF93B4
:10016000DF936C017B018B01040F151FEB015E0116
:10017000AE18BF08C017D10759F06991D601ED91AB
:10018000FC910190F081E02DC6010995892B79F74A
:10019000C501DF91CF911F910F91FF90EF90DF90FC
:1001A000CF90BF90AF900895FC01538D448D252FC3
:1001B00030E0842F90E0821B930B541710F0CF9601
:1001C000089501970895FC01918D828D981761F033
:1001D000A28DAE0FBF2FB11D5D968C91928D9F5F4A
:1001E0009F73928F90E008958FEF9FEF0895FC0129
:1001F000918D828D981731F0828DE80FF11D858DDC
:1002000090E008958FEF9FEF0895FC01918D228D6E
:10021000892F90E0805C9F4F821B91098F739927F3
:10022000089588E791E00E94050121E0892B09F4F7
:1002300020E0822F089580E090E0892B29F00E9431
:10024000110181110C9400000895FC01A48DA80FE8
:10025000B92FB11DA35ABF4F2C91848D90E0019608
:100260008F739927848FA689B7892C93A089B18928
:100270008C91837080648C93938D848D981306C0C9
:100280000288F389E02D80818F7D80830895EF922D
:10029000FF920F931F93CF93DF93EC0181E0888F40
:1002A0009B8D8C8D98131AC0E889F989808185FF10
:1002B00015C09FB7F894EE89FF896083E889F989B2
:1002C00080818370806480839FBF81E090E0DF91B4
:1002D000CF911F910F91FF90EF900895F62E0B8D07
:1002E00010E00F5F1F4F0F731127E02E8C8D8E11C2
:1002F0000CC00FB607FCFACFE889F989808185FF29
:10030000F5CFCE010E942501F1CFEB8DEC0FFD2F33
:10031000F11DE35AFF4FF0829FB7F8940B8FEA89E3
:10032000FB8980818062CFCFCF93DF93EC01888DF2
:100330008823B9F0AA89BB89E889F9898C9185FD60
:1003400003C0808186FD0DC00FB607FCF7CF8C91EE
:1003500085FFF2CF808185FFEDCFCE010E94250180
:10036000E9CFDF91CF91089590E0FC01E859FF4F6C
:100370002491FC01EC55FF4F3491FC01E057FF4FF5
:10038000E491EE23C9F0222339F0233001F1A8F4DF
:10039000213019F1223029F1F0E0EE0FFF1FE4586F
:1003A000FF4FA591B4918FB7F894EC91611126C0DD
:1003B00030953E233C938FBF08952730A9F0283015
:1003C000C9F0243049F7809180008F7D03C080916F
:1003D00080008F7780938000DFCF84B58F7784BDD6
:1003E000DBCF84B58F7DFBCF8091B0008F7780937A
:1003F000B000D2CF8091B0008F7DF9CF3E2BDACF05
:100400003FB7F8948091710190917201A0917301AE
:10041000B091740126B5A89B05C02F3F19F0019635
:10042000A11DB11D3FBFBA2FA92F982F8827BC014E
:10043000CD01620F711D811D911D42E0660F771F76
:10044000881F991F4A95D1F708958F929F92AF9276
:10045000BF92CF92DF92EF92FF926B017C010E94DC
:1004600000024B015C01C114D104E104F104B9F0B4
:100470000E940002681979098A099B09683E734045
:100480008105910580F321E0C21AD108E108F10845
:1004900088EE880E83E0981EA11CB11CE4CFFF906B
:1004A000EF90DF90CF90BF90AF909F908F90089586
:1004B000CF93C2E060E08C2F0E94B401CF5FCA30BE
:1004C000C9F7CF910895CF93C2E061E08C2F0E94CD
:1004D000B401CF5FCA30C9F7CF910895FC010190F4
:1004E0000020E9F73197AF01481B590BBC0188E7A1
:1004F00091E00C94A7001F920F920FB60F92112457
:100500002F933F934F935F936F937F938F939F931B
:10051000AF93BF93EF93FF9388E791E00E9425018B
:10052000FF91EF91BF91AF919F918F917F916F91CB
:100530005F914F913F912F910F900FBE0F901F90A1
:1005400018951F920F920FB60F9211242F938F932D
:100550009F93EF93FF93E0918801F091890180814F
:10056000E0918E01F0918F0182FD1BC090818091FE
:1005700091018F5F8F7320919201821741F0E0917A
:100580009101F0E0E858FE4F958F80939101FF9123
:10059000EF919F918F912F910F900FBE0F901F9011
:1005A00018958081F4CF1F920F920FB60F921124ED
:1005B0002F933F938F939F93AF93BF9380916D0140
:1005C00090916E01A0916F01B091700130916C011A
:1005D00023E0230F2D3758F50196A11DB11D20935F
:1005E0006C0180936D0190936E01A0936F01B093A5
:1005F00070018091710190917201A0917301B0918D
:1006000074010196A11DB11D809371019093720137
:10061000A0937301B0937401BF91AF919F918F919B
:100620003F912F910F900FBE0F901F90189526E8C5
:10063000230F0296A11DB11DD2CF10927B01109203
:100640007A0188EE93E0A0E0B0E080937C01909383
:100650007D01A0937E01B0937F018AE091E09093A9
:1006600079018093780185EC90E0909385018093E7
:10067000840184EC90E0909387018093860180EC64
:1006800090E0909389018093880181EC90E09093B1
:100690008B0180938A0182EC90E090938D0180938E
:1006A0008C0186EC90E090938F0180938E011092E4
:1006B0009101109292011092930110929401109264
:1006C0001602109215021092180210921702109240
:1006D0001A021092190269E170E090E080E00E9435
:1006E000D106009701F1909316028093150228E13C
:1006F00030E03093180220931702209119023091B4
:100700001A02232B11F4FC01108288E190E09093EF
:100710001A028093190268E171E0809115029091AC
:1007200016020C949707809115029091160200977B
:1007300011F00E94480610921602109215021092B3
:100740001A021092190210921802109217020895BC
:10075000CF93DF93CDB7DEB7A1970FB6F894DEBF86
:100760000FBECDBF789484B5826084BD84B58160AE
:1007700084BD85B5826085BD85B5816085BD80916C
:100780006E00816080936E001092810080918100E4
:1007900082608093810080918100816080938100DC
:1007A000809180008160809380008091B10084609E
:1007B0008093B1008091B00081608093B0008091FF
:1007C0007A00846080937A0080917A0082608093BE
:1007D0007A0080917A00816080937A0080917A001B
:1007E000806880937A001092C100E0918801F091B6
:1007F000890182E08083E0918401F091850110827B
:10080000E0918601F09187018FEC80831092900136
:10081000E0918C01F0918D0186E08083E0918A0166
:10082000F0918B01808180618083E0918A01F09159
:100830008B01808188608083E0918A01F0918B0137
:10084000808180688083E0918A01F0918B018081B2
:100850008F7D808381E391E00E946E0284E391E0CA
:100860000E946E0281E391E00E946E0282E591E0B7
:100870000E946E0281E391E00E946E0212E0812FDD
:100880000E9488001F5F1A30D1F78DE00E94880017
:100890003AE0832E912CA12CB12C00E010E088E7E7
:1008A00091E00E94E3009FEC980F933010F4809346
:1008B000770180917701813309F041C022E0E22E77
:1008C000F12C61E08E2D0E94B40168EE73E080E0AF
:1008D00090E00E942502F0927601E092750189E095
:1008E000E816F10451F40E9463026CE271E080E0CA
:1008F00090E00E9425020E9458029FEFE91AF90A2F
:10090000EAE0EE16F104E9F668EC70E080E090E0D1
:100910000E9425020E94630268EC70E080E090E093
:100920000E9425020E94580268EC70E080E090E08E
:100930000E94250261E08DE00E94B40150C0823324
:1009400009F04BC068EC70E080E090E00E94250266
:1009500092E0E92EF12C60E0809175010E94B401D3
:1009600061E08E2D0E94B40164E670E080E090E0CA
:100970000E942502F0927601E0927501FFEFEF1AD6
:10098000FF0A8AE0E816F10431F768EC70E080E0D5
:1009900090E00E94250289E0E82EF12C60E0809131
:1009A00075010E94B40161E08E2D0E94B40164E6DD
:1009B00070E080E090E00E942502F0927601E092E3
:1009C000750191E0E91AF108E1E0EE16F10431F762
:1009D00060E08DE00E94B4019DCF81119BCFC0905B
:1009E0007501D09076010D2C000CEE08FF08F7FE83
:1009F00035C06DE288E791E00E9447012227332746
:100A0000A9012C193D094E095F0919A2CE01819651
:100A10007C01CA01B901A50194010E948405605DB1
:100A2000F70162937F01211531054105510589F7D1
:100A3000E114F10419F0C7010E946E0281E391E014
:100A40000E946E020115110509F429CF0E941101BF
:100A5000882309F424CF0E94000021CFA70196012A
:100A600019A2CE0181967C01CA01B901A5019401A8
:100A70000E948405605DF70162937F0121153105B5
:100A80004105510589F7D4CF809115029091160246
:100A9000009711F00C94480608952F923F924F92C0
:100AA0005F926F927F928F929F92AF92BF92CF92FE
:100AB000DF92EF92FF920F931F93CF93DF93CDB707
:100AC000DEB7CA1BDB0B0FB6F894DEBF0FBECDBF7F
:100AD00009942A88398848885F846E847D848C8450
:100AE0009B84AA84B984C884DF80EE80FD800C8159
:100AF0001B81AA81B981CE0FD11D0FB6F894DEBF3C
:100B00000FBECDBFED010895A1E21A2EAA1BBB1B9B
:100B1000FD010DC0AA1FBB1FEE1FFF1FA217B307C9
:100B2000E407F50720F0A21BB30BE40BF50B661FDF
:100B3000771F881F991F1A9469F7609570958095A3
:100B400090959B01AC01BD01CF010895EE0FFF1FF1
:100B50000590F491E02D09940F931F93CF93DF93A9
:100B60008230910510F482E090E0E0911D02F09156
:100B70001E0230E020E0B0E0A0E0309799F42115AB
:100B8000310509F44AC0281B390B24303105D8F54A
:100B90008A819B816115710589F1FB0193838283B1
:100BA000FE0111C04081518102811381481759070C
:100BB000E0F04817590799F4109761F012960C93DA
:100BC000129713961C933296CF01DF91CF911F910C
:100BD0000F91089500931D0210931E02F4CF21156A
:100BE000310551F04217530738F0A901DB019A0192
:100BF000BD01DF01F801C1CFEF01F9CF90931E02D3
:100C000080931D02CDCFFE01E20FF31F81939193DC
:100C10002250310939832883D7CF20911B0230918C
:100C20001C02232B41F420910201309103013093E7
:100C30001C0220931B02209100013091010121151B
:100C4000310541F42DB73EB74091040150910501A3
:100C5000241B350BE0911B02F0911C02E217F307F5
:100C6000A0F42E1B3F0B2817390778F0AC014E5F1C
:100C70005F4F2417350748F04E0F5F1F50931C023B
:100C800040931B02819391939FCFF0E0E0E09CCFD3
:100C9000CF93DF930097E9F0FC0132971382128221
:100CA000A0911D02B0911E02ED0130E020E01097EE
:100CB000A1F420813181820F931F20911B0230917A
:100CC0001C022817390709F061C0F0931C02E09359
:100CD0001B02DF91CF910895EA01CE17DF07E8F5F7
:100CE0004A815B819E0141155105B1F7E901FB8302
:100CF000EA8349915991C40FD51FEC17FD0761F4A0
:100D0000808191810296840F951FE90199838883E0
:100D1000828193819B838A83F0E0E0E012968D913B
:100D20009C9113970097B9F52D913C911197CD01A6
:100D30000296820F931F20911B0230911C022817EC
:100D4000390739F6309751F510921E0210921D02A4
:100D5000B0931C02A0931B02BCCFD383C2834081FB
:100D60005181840F951FC817D90761F44E5F5F4FFB
:100D700088819981480F591F518340838A819B81C3
:100D8000938382832115310509F0B0CFF0931E02C1
:100D9000E0931D029ECFFD01DC01C0CF13821282C1
:100DA000D7CFB0E0A0E0E7EDF6E00C944F058C0162
:100DB000009751F4CB010E94AC058C01C801CDB75E
:100DC000DEB7E0E10C946B05FC01E60FF71F9C0118
:100DD00022503109E217F30708F49DC0D901CD91E3
:100DE000DC911197C617D70798F0C530D10530F3BD
:100DF000CE0104978617970708F3C61BD70B2297D7
:100E0000C193D1936D937C93CF010E944806D6CFB6
:100E10005B01AC1ABD0A4C018C0E9D1EA0911D02F7
:100E2000B0911E02512C412CF12CE12C109731F580
:100E300080911B0290911C028815990509F05CC0F5
:100E40004616570608F058C08091000190910101A4
:100E5000009741F48DB79EB7409104015091050170
:100E6000841B950BE817F90708F055C0F0931C0296
:100E7000E0931B02F90171836083A0CF8D919C9157
:100E8000119712966C90129713967C901397A81551
:100E9000B90559F56C0142E0C40ED11CCA14DB043B
:100EA00020F1AC014A195B09DA011296159780F01E
:100EB0006282738251834083D9016D937C93E114E4
:100EC000F10471F0D7011396FC93EE93129776CF4D
:100ED00022968C0F9D1FF90191838083F301EFCF40
:100EE000F0931E02E0931D0269CF4816590608F4DC
:100EF0002C017D01D3019ACFCB010E94AC057C016E
:100F0000009749F0AE01B8010E948E07C8010E9407
:100F10004806870153CF10E000E050CFFB01DC0111
:100F200002C001900D9241505040D8F70895FB0146
:100F3000DC0101900D920020E1F7089510E0CDE56D
:100F4000D0E004C0FE010E94A6052196CE35D1074F
:060F5000C9F7F894FFCF81
:100F560000001F028000000000004701A700D40027
:100F660094010501E300F700496E70757420506125
:100F7600747465726E206E756D62657220312D33E4
:100F8600000D0A0057656C636F6D65206D792062F0
:100F9600726F746865727320262073697374657244
:100FA60021004F70656E6564207468652053657214
:0C0FB60069656C204D6F6E69746F7200ED
:00000001FF
